{
  "address": "0x11d9efDf4Ab4A3bfabf5C7089F56AA4F059AA14C",
  "abi": [
    {
      "inputs": [
        {
          "internalType": "address",
          "name": "_token",
          "type": "address"
        },
        {
          "internalType": "address",
          "name": "_aToken",
          "type": "address"
        },
        {
          "internalType": "address",
          "name": "_pool",
          "type": "address"
        },
        {
          "internalType": "address",
          "name": "_rewards",
          "type": "address"
        }
      ],
      "stateMutability": "nonpayable",
      "type": "constructor"
    },
    {
      "anonymous": false,
      "inputs": [
        {
          "indexed": true,
          "internalType": "address",
          "name": "owner",
          "type": "address"
        },
        {
          "indexed": true,
          "internalType": "address",
          "name": "spender",
          "type": "address"
        },
        {
          "indexed": false,
          "internalType": "uint256",
          "name": "value",
          "type": "uint256"
        }
      ],
      "name": "Approval",
      "type": "event"
    },
    {
      "anonymous": false,
      "inputs": [
        {
          "indexed": false,
          "internalType": "address",
          "name": "receiver",
          "type": "address"
        },
        {
          "indexed": false,
          "internalType": "uint256",
          "name": "amount",
          "type": "uint256"
        }
      ],
      "name": "Burned",
      "type": "event"
    },
    {
      "anonymous": false,
      "inputs": [
        {
          "indexed": false,
          "internalType": "address[]",
          "name": "rewardsList",
          "type": "address[]"
        },
        {
          "indexed": false,
          "internalType": "uint256[]",
          "name": "claimedAmounts",
          "type": "uint256[]"
        }
      ],
      "name": "ClaimedRewards",
      "type": "event"
    },
    {
      "anonymous": false,
      "inputs": [
        {
          "indexed": false,
          "internalType": "uint256",
          "name": "amount",
          "type": "uint256"
        }
      ],
      "name": "ClaimedYield",
      "type": "event"
    },
    {
      "anonymous": false,
      "inputs": [
        {
          "indexed": false,
          "internalType": "address",
          "name": "receiver",
          "type": "address"
        },
        {
          "indexed": false,
          "internalType": "uint256",
          "name": "amount",
          "type": "uint256"
        }
      ],
      "name": "Minted",
      "type": "event"
    },
    {
      "anonymous": false,
      "inputs": [
        {
          "indexed": true,
          "internalType": "address",
          "name": "previousOwner",
          "type": "address"
        },
        {
          "indexed": true,
          "internalType": "address",
          "name": "newOwner",
          "type": "address"
        }
      ],
      "name": "OwnershipTransferred",
      "type": "event"
    },
    {
      "anonymous": false,
      "inputs": [
        {
          "indexed": true,
          "internalType": "address",
          "name": "from",
          "type": "address"
        },
        {
          "indexed": true,
          "internalType": "address",
          "name": "to",
          "type": "address"
        },
        {
          "indexed": false,
          "internalType": "uint256",
          "name": "value",
          "type": "uint256"
        }
      ],
      "name": "Transfer",
      "type": "event"
    },
    {
      "inputs": [],
      "name": "aToken",
      "outputs": [
        {
          "internalType": "contract IERC20",
          "name": "",
          "type": "address"
        }
      ],
      "stateMutability": "view",
      "type": "function"
    },
    {
      "inputs": [
        {
          "internalType": "address",
          "name": "owner",
          "type": "address"
        },
        {
          "internalType": "address",
          "name": "spender",
          "type": "address"
        }
      ],
      "name": "allowance",
      "outputs": [
        {
          "internalType": "uint256",
          "name": "",
          "type": "uint256"
        }
      ],
      "stateMutability": "view",
      "type": "function"
    },
    {
      "inputs": [
        {
          "internalType": "address",
          "name": "spender",
          "type": "address"
        },
        {
          "internalType": "uint256",
          "name": "amount",
          "type": "uint256"
        }
      ],
      "name": "approve",
      "outputs": [
        {
          "internalType": "bool",
          "name": "",
          "type": "bool"
        }
      ],
      "stateMutability": "nonpayable",
      "type": "function"
    },
    {
      "inputs": [
        {
          "internalType": "address",
          "name": "account",
          "type": "address"
        }
      ],
      "name": "balanceOf",
      "outputs": [
        {
          "internalType": "uint256",
          "name": "",
          "type": "uint256"
        }
      ],
      "stateMutability": "view",
      "type": "function"
    },
    {
      "inputs": [
        {
          "internalType": "uint256",
          "name": "amount",
          "type": "uint256"
        },
        {
          "internalType": "address",
          "name": "receiver",
          "type": "address"
        }
      ],
      "name": "burn",
      "outputs": [],
      "stateMutability": "nonpayable",
      "type": "function"
    },
    {
      "inputs": [],
      "name": "claimRewards",
      "outputs": [],
      "stateMutability": "nonpayable",
      "type": "function"
    },
    {
      "inputs": [
        {
          "internalType": "uint256",
          "name": "amount",
          "type": "uint256"
        }
      ],
      "name": "claimYield",
      "outputs": [],
      "stateMutability": "nonpayable",
      "type": "function"
    },
    {
      "inputs": [],
      "name": "decimals",
      "outputs": [
        {
          "internalType": "uint8",
          "name": "",
          "type": "uint8"
        }
      ],
      "stateMutability": "view",
      "type": "function"
    },
    {
      "inputs": [
        {
          "internalType": "address",
          "name": "spender",
          "type": "address"
        },
        {
          "internalType": "uint256",
          "name": "subtractedValue",
          "type": "uint256"
        }
      ],
      "name": "decreaseAllowance",
      "outputs": [
        {
          "internalType": "bool",
          "name": "",
          "type": "bool"
        }
      ],
      "stateMutability": "nonpayable",
      "type": "function"
    },
    {
      "inputs": [
        {
          "internalType": "address",
          "name": "spender",
          "type": "address"
        },
        {
          "internalType": "uint256",
          "name": "addedValue",
          "type": "uint256"
        }
      ],
      "name": "increaseAllowance",
      "outputs": [
        {
          "internalType": "bool",
          "name": "",
          "type": "bool"
        }
      ],
      "stateMutability": "nonpayable",
      "type": "function"
    },
    {
      "inputs": [
        {
          "internalType": "string",
          "name": "name",
          "type": "string"
        },
        {
          "internalType": "string",
          "name": "symbol",
          "type": "string"
        }
      ],
      "name": "initialize",
      "outputs": [],
      "stateMutability": "nonpayable",
      "type": "function"
    },
    {
      "inputs": [
        {
          "internalType": "uint256",
          "name": "amount",
          "type": "uint256"
        },
        {
          "internalType": "address",
          "name": "receiver",
          "type": "address"
        }
      ],
      "name": "mint",
      "outputs": [],
      "stateMutability": "nonpayable",
      "type": "function"
    },
    {
      "inputs": [],
      "name": "name",
      "outputs": [
        {
          "internalType": "string",
          "name": "",
          "type": "string"
        }
      ],
      "stateMutability": "view",
      "type": "function"
    },
    {
      "inputs": [],
      "name": "owner",
      "outputs": [
        {
          "internalType": "address",
          "name": "",
          "type": "address"
        }
      ],
      "stateMutability": "view",
      "type": "function"
    },
    {
      "inputs": [],
      "name": "pool",
      "outputs": [
        {
          "internalType": "contract IPool",
          "name": "",
          "type": "address"
        }
      ],
      "stateMutability": "view",
      "type": "function"
    },
    {
      "inputs": [],
      "name": "renounceOwnership",
      "outputs": [],
      "stateMutability": "nonpayable",
      "type": "function"
    },
    {
      "inputs": [
        {
          "internalType": "address",
          "name": "tok",
          "type": "address"
        },
        {
          "internalType": "uint256",
          "name": "amount",
          "type": "uint256"
        }
      ],
      "name": "rescueToken",
      "outputs": [],
      "stateMutability": "nonpayable",
      "type": "function"
    },
    {
      "inputs": [],
      "name": "rewards",
      "outputs": [
        {
          "internalType": "contract IRewardsController",
          "name": "",
          "type": "address"
        }
      ],
      "stateMutability": "view",
      "type": "function"
    },
    {
      "inputs": [],
      "name": "rewardsAccrued",
      "outputs": [
        {
          "internalType": "address[]",
          "name": "rewardsList",
          "type": "address[]"
        },
        {
          "internalType": "uint256[]",
          "name": "unclaimedAmounts",
          "type": "uint256[]"
        }
      ],
      "stateMutability": "view",
      "type": "function"
    },
    {
      "inputs": [],
      "name": "symbol",
      "outputs": [
        {
          "internalType": "string",
          "name": "",
          "type": "string"
        }
      ],
      "stateMutability": "view",
      "type": "function"
    },
    {
      "inputs": [],
      "name": "token",
      "outputs": [
        {
          "internalType": "contract IERC20",
          "name": "",
          "type": "address"
        }
      ],
      "stateMutability": "view",
      "type": "function"
    },
    {
      "inputs": [],
      "name": "totalSupply",
      "outputs": [
        {
          "internalType": "uint256",
          "name": "",
          "type": "uint256"
        }
      ],
      "stateMutability": "view",
      "type": "function"
    },
    {
      "inputs": [
        {
          "internalType": "address",
          "name": "to",
          "type": "address"
        },
        {
          "internalType": "uint256",
          "name": "amount",
          "type": "uint256"
        }
      ],
      "name": "transfer",
      "outputs": [
        {
          "internalType": "bool",
          "name": "",
          "type": "bool"
        }
      ],
      "stateMutability": "nonpayable",
      "type": "function"
    },
    {
      "inputs": [
        {
          "internalType": "address",
          "name": "from",
          "type": "address"
        },
        {
          "internalType": "address",
          "name": "to",
          "type": "address"
        },
        {
          "internalType": "uint256",
          "name": "amount",
          "type": "uint256"
        }
      ],
      "name": "transferFrom",
      "outputs": [
        {
          "internalType": "bool",
          "name": "",
          "type": "bool"
        }
      ],
      "stateMutability": "nonpayable",
      "type": "function"
    },
    {
      "inputs": [
        {
          "internalType": "address",
          "name": "newOwner",
          "type": "address"
        }
      ],
      "name": "transferOwnership",
      "outputs": [],
      "stateMutability": "nonpayable",
      "type": "function"
    },
    {
      "inputs": [],
      "name": "yieldAccrued",
      "outputs": [
        {
          "internalType": "uint256",
          "name": "",
          "type": "uint256"
        }
      ],
      "stateMutability": "view",
      "type": "function"
    }
  ],
  "transactionHash": "0x9c40c115bc1b0a0ca72b745c49ece208a7c716a1dd6e1df86605bc4c3ac5fd06",
  "args": [
    "0x8f3Cf7ad23Cd3CaDbD9735AFf958023239c6A063",
    "0x82E64f49Ed5EC1bC6e43DAD4FC8Af9bb3A2312EE",
    "0x794a61358D6845594F94dc1DB02A252b5b4814aD",
    "0x929EC64c34a17401F460460D4B9390518E5B473e"
  ],
  "solcInputHash": "e08672e37039f89993d8a00dbd0c4035",
  "bytecode": "0x6101006040523480156200001257600080fd5b506040516200241138038062002411833981016040819052620000359162000082565b6001600160601b0319606094851b811660805292841b831660a05290831b821660c05290911b1660e052620000df565b80516001600160a01b03811681146200007d57600080fd5b919050565b600080600080608085870312156200009957600080fd5b620000a48562000065565b9350620000b46020860162000065565b9250620000c46040860162000065565b9150620000d46060860162000065565b905092959194509250565b60805160601c60a05160601c60c05160601c60e05160601c61229162000180600039600081816102ff015281816106490152610cf20152600081816101d90152818161084a01528181610adf0152610eb101526000818161032601528181610517015281816105fa01528181610c9b01528181610edd01526113f50152600081816103dd0152818161087901528181610abe0152610f1b01526122916000f3fe608060405234801561001057600080fd5b506004361061018e5760003560e01c80638da5cb5b116100de578063a8158f6511610097578063dd62ed3e11610071578063dd62ed3e1461038c578063f2fde38b146103c5578063fc0c546a146103d8578063fcd3533c146103ff57600080fd5b8063a8158f651461035b578063a9059cbb14610371578063ca092ce81461038457600080fd5b80638da5cb5b146102ce57806394bf804d146102df57806395d89b41146102f25780639ec5a894146102fa578063a0c1f15e14610321578063a457c2d71461034857600080fd5b806333f3d6281161014b57806340bd2e231161012557806340bd2e23146102775780634cd88b761461028a57806370a082311461029d578063715018a6146102c657600080fd5b806333f3d62814610247578063372500ab1461025c578063395093511461026457600080fd5b806306fdde0314610193578063095ea7b3146101b157806316f0115b146101d457806318160ddd1461021357806323b872dd14610225578063313ce56714610238575b600080fd5b61019b610412565b6040516101a8919061202f565b60405180910390f35b6101c46101bf366004611d90565b6104a4565b60405190151581526020016101a8565b6101fb7f000000000000000000000000000000000000000000000000000000000000000081565b6040516001600160a01b0390911681526020016101a8565b6035545b6040519081526020016101a8565b6101c4610233366004611d4f565b6104bc565b604051601281526020016101a8565b61025a610255366004611d90565b6104e2565b005b61025a6105cb565b6101c4610272366004611d90565b61073b565b61025a610285366004611f04565b61077a565b61025a610298366004611eaa565b610971565b6102176102ab366004611cf9565b6001600160a01b031660009081526033602052604090205490565b61025a610a46565b6065546001600160a01b03166101fb565b61025a6102ed366004611f36565b610a7c565b61019b610be8565b6101fb7f000000000000000000000000000000000000000000000000000000000000000081565b6101fb7f000000000000000000000000000000000000000000000000000000000000000081565b6101c4610356366004611d90565b610bf7565b610363610c94565b6040516101a8929190611fe5565b6101c461037f366004611d90565b610d88565b610217610d96565b61021761039a366004611d16565b6001600160a01b03918216600090815260346020908152604080832093909416825291909152205490565b61025a6103d3366004611cf9565b610da5565b6101fb7f000000000000000000000000000000000000000000000000000000000000000081565b61025a61040d366004611f36565b610e40565b606060368054610421906121c9565b80601f016020809104026020016040519081016040528092919081815260200182805461044d906121c9565b801561049a5780601f1061046f5761010080835404028352916020019161049a565b820191906000526020600020905b81548152906001019060200180831161047d57829003601f168201915b5050505050905090565b6000336104b2818585610fee565b5060019392505050565b6000336104ca858285611112565b6104d58585856111a4565b60019150505b9392505050565b6065546001600160a01b031633146105155760405162461bcd60e51b815260040161050c90612062565b60405180910390fd5b7f00000000000000000000000000000000000000000000000000000000000000006001600160a01b0316826001600160a01b031614156105a15760405162461bcd60e51b815260206004820152602160248201527f42726561643a2063616e6e6f7420776974686472617720636f6c6c61746572616044820152601b60fa1b606482015260840161050c565b6105c76105b66065546001600160a01b031690565b6001600160a01b0384169083611372565b5050565b600260975414156105ee5760405162461bcd60e51b815260040161050c906120e2565b600260978190555060607f00000000000000000000000000000000000000000000000000000000000000008160008151811061062c5761062c61221a565b6001600160a01b03928316602091820292909201015260009081907f00000000000000000000000000000000000000000000000000000000000000001663bb492bf5846106816065546001600160a01b031690565b6040518363ffffffff1660e01b815260040161069e929190611fbb565b600060405180830381600087803b1580156106b857600080fd5b505af11580156106cc573d6000803e3d6000fd5b505050506040513d6000823e601f3d908101601f191682016040526106f49190810190611dbc565b915091507f3131ac6eb32231403fa00e9428dda0bcb819d252eec55b11e6d7c53d91571bba8282604051610729929190611fe5565b60405180910390a15050600160975550565b3360008181526034602090815260408083206001600160a01b03871684529091528120549091906104b2908290869061077590879061216e565b610fee565b6002609754141561079d5760405162461bcd60e51b815260040161050c906120e2565b6002609755806107e05760405162461bcd60e51b815260206004820152600e60248201526d042726561643a20636c61696d20360941b604482015260640161050c565b60006107ea6113d5565b9050818110156108485760405162461bcd60e51b815260206004820152602360248201527f42726561643a20616d6f756e742065786365656473207969656c6420616363726044820152621d595960ea1b606482015260840161050c565b7f00000000000000000000000000000000000000000000000000000000000000006001600160a01b03166369328dec7f0000000000000000000000000000000000000000000000000000000000000000846108ab6065546001600160a01b031690565b60405160e085901b6001600160e01b03191681526001600160a01b03938416600482015260248101929092529091166044820152606401602060405180830381600087803b1580156108fc57600080fd5b505af1158015610910573d6000803e3d6000fd5b505050506040513d601f19601f820116820180604052508101906109349190611f1d565b506040518281527f32919048af00a655979f73cd0a43b0e566a60e04a81a751b9329c2658441e05b9060200160405180910390a150506001609755565b600054610100900460ff1661098c5760005460ff1615610990565b303b155b6109f35760405162461bcd60e51b815260206004820152602e60248201527f496e697469616c697a61626c653a20636f6e747261637420697320616c72656160448201526d191e481a5b9a5d1a585b1a5e995960921b606482015260840161050c565b600054610100900460ff16158015610a15576000805461ffff19166101011790555b610a1f8383611481565b610a276114b2565b610a2f6114e1565b8015610a41576000805461ff00191690555b505050565b6065546001600160a01b03163314610a705760405162461bcd60e51b815260040161050c90612062565b610a7a6000611510565b565b60008211610abc5760405162461bcd60e51b815260206004820152600d60248201526c042726561643a206d696e74203609c1b604482015260640161050c565b7f00000000000000000000000000000000000000000000000000000000000000007f0000000000000000000000000000000000000000000000000000000000000000610b136001600160a01b038316333087611562565b610b276001600160a01b038316828661159a565b60405163617ba03760e01b81526001600160a01b038381166004830152602482018690523060448301526000606483015282169063617ba03790608401600060405180830381600087803b158015610b7e57600080fd5b505af1158015610b92573d6000803e3d6000fd5b50505050610ba0838561165b565b604080516001600160a01b0385168152602081018690527f30385c845b448a36257a6a1716e6ad2e1bc2cbe333cde1e69fe849ad6511adfe910160405180910390a150505050565b606060378054610421906121c9565b3360008181526034602090815260408083206001600160a01b038716845290915281205490919083811015610c7c5760405162461bcd60e51b815260206004820152602560248201527f45524332303a2064656372656173656420616c6c6f77616e63652062656c6f77604482015264207a65726f60d81b606482015260840161050c565b610c898286868403610fee565b506001949350505050565b60608060607f000000000000000000000000000000000000000000000000000000000000000081600081518110610ccd57610ccd61221a565b6001600160a01b039283166020918202929092010152604051634c0369c360e01b81527f000000000000000000000000000000000000000000000000000000000000000090911690634c0369c390610d2b9084903090600401611fbb565b60006040518083038186803b158015610d4357600080fd5b505afa158015610d57573d6000803e3d6000fd5b505050506040513d6000823e601f3d908101601f19168201604052610d7f9190810190611dbc565b92509250509091565b6000336104b28185856111a4565b6000610da06113d5565b905090565b6065546001600160a01b03163314610dcf5760405162461bcd60e51b815260040161050c90612062565b6001600160a01b038116610e345760405162461bcd60e51b815260206004820152602660248201527f4f776e61626c653a206e6577206f776e657220697320746865207a65726f206160448201526564647265737360d01b606482015260840161050c565b610e3d81611510565b50565b60026097541415610e635760405162461bcd60e51b815260040161050c906120e2565b600260975581610ea55760405162461bcd60e51b815260206004820152600d60248201526c042726561643a206275726e203609c1b604482015260640161050c565b610eaf338361173a565b7f0000000000000000000000000000000000000000000000000000000000000000610f046001600160a01b037f000000000000000000000000000000000000000000000000000000000000000016828561159a565b604051631a4ca37b60e21b81526001600160a01b037f0000000000000000000000000000000000000000000000000000000000000000811660048301526024820185905283811660448301528216906369328dec90606401602060405180830381600087803b158015610f7657600080fd5b505af1158015610f8a573d6000803e3d6000fd5b505050506040513d601f19601f82011682018060405250810190610fae9190611f1d565b50604080516001600160a01b0384168152602081018590527f696de425f79f4a40bc6d2122ca50507f0efbeabbff86a84871b7196ab8ea8df79101610729565b6001600160a01b0383166110505760405162461bcd60e51b8152602060048201526024808201527f45524332303a20617070726f76652066726f6d20746865207a65726f206164646044820152637265737360e01b606482015260840161050c565b6001600160a01b0382166110b15760405162461bcd60e51b815260206004820152602260248201527f45524332303a20617070726f766520746f20746865207a65726f206164647265604482015261737360f01b606482015260840161050c565b6001600160a01b0383811660008181526034602090815260408083209487168084529482529182902085905590518481527f8c5be1e5ebec7d5bd14f71427d1e84f3dd0314c0f7b2291e5b200ac8c7c3b925910160405180910390a3505050565b6001600160a01b03838116600090815260346020908152604080832093861683529290522054600019811461119e57818110156111915760405162461bcd60e51b815260206004820152601d60248201527f45524332303a20696e73756666696369656e7420616c6c6f77616e6365000000604482015260640161050c565b61119e8484848403610fee565b50505050565b6001600160a01b0383166112085760405162461bcd60e51b815260206004820152602560248201527f45524332303a207472616e736665722066726f6d20746865207a65726f206164604482015264647265737360d81b606482015260840161050c565b6001600160a01b03821661126a5760405162461bcd60e51b815260206004820152602360248201527f45524332303a207472616e7366657220746f20746865207a65726f206164647260448201526265737360e81b606482015260840161050c565b6001600160a01b038316600090815260336020526040902054818110156112e25760405162461bcd60e51b815260206004820152602660248201527f45524332303a207472616e7366657220616d6f756e7420657863656564732062604482015265616c616e636560d01b606482015260840161050c565b6001600160a01b0380851660009081526033602052604080822085850390559185168152908120805484929061131990849061216e565b92505081905550826001600160a01b0316846001600160a01b03167fddf252ad1be2c89b69c2b068fc378daa952ba7f163c4a11628f55a4df523b3ef8460405161136591815260200190565b60405180910390a361119e565b6040516001600160a01b038316602482015260448101829052610a4190849063a9059cbb60e01b906064015b60408051601f198184030181529190526020810180516001600160e01b03166001600160e01b031990931692909217909152611888565b60006113e060355490565b6040516370a0823160e01b81523060048201527f00000000000000000000000000000000000000000000000000000000000000006001600160a01b0316906370a082319060240160206040518083038186803b15801561143f57600080fd5b505afa158015611453573d6000803e3d6000fd5b505050506040513d601f19601f820116820180604052508101906114779190611f1d565b610da09190612186565b600054610100900460ff166114a85760405162461bcd60e51b815260040161050c90612097565b6105c7828261195a565b600054610100900460ff166114d95760405162461bcd60e51b815260040161050c90612097565b610a7a6119a8565b600054610100900460ff166115085760405162461bcd60e51b815260040161050c90612097565b610a7a6119d6565b606580546001600160a01b038381166001600160a01b0319831681179093556040519116919082907f8be0079c531659141344cd1fd0a4f28419497f9722a3daafe3b4186f6b6457e090600090a35050565b6040516001600160a01b038085166024830152831660448201526064810182905261119e9085906323b872dd60e01b9060840161139e565b604051636eb1769f60e11b81523060048201526001600160a01b038381166024830152600091839186169063dd62ed3e9060440160206040518083038186803b1580156115e657600080fd5b505afa1580156115fa573d6000803e3d6000fd5b505050506040513d601f19601f8201168201806040525081019061161e9190611f1d565b611628919061216e565b6040516001600160a01b03851660248201526044810182905290915061119e90859063095ea7b360e01b9060640161139e565b6001600160a01b0382166116b15760405162461bcd60e51b815260206004820152601f60248201527f45524332303a206d696e7420746f20746865207a65726f206164647265737300604482015260640161050c565b80603560008282546116c3919061216e565b90915550506001600160a01b038216600090815260336020526040812080548392906116f090849061216e565b90915550506040518181526001600160a01b038316906000907fddf252ad1be2c89b69c2b068fc378daa952ba7f163c4a11628f55a4df523b3ef9060200160405180910390a35050565b6001600160a01b03821661179a5760405162461bcd60e51b815260206004820152602160248201527f45524332303a206275726e2066726f6d20746865207a65726f206164647265736044820152607360f81b606482015260840161050c565b6001600160a01b0382166000908152603360205260409020548181101561180e5760405162461bcd60e51b815260206004820152602260248201527f45524332303a206275726e20616d6f756e7420657863656564732062616c616e604482015261636560f01b606482015260840161050c565b6001600160a01b038316600090815260336020526040812083830390556035805484929061183d908490612186565b90915550506040518281526000906001600160a01b038516907fddf252ad1be2c89b69c2b068fc378daa952ba7f163c4a11628f55a4df523b3ef9060200160405180910390a3505050565b60006118dd826040518060400160405280602081526020017f5361666545524332303a206c6f772d6c6576656c2063616c6c206661696c6564815250856001600160a01b0316611a069092919063ffffffff16565b805190915015610a4157808060200190518101906118fb9190611e88565b610a415760405162461bcd60e51b815260206004820152602a60248201527f5361666545524332303a204552433230206f7065726174696f6e20646964206e6044820152691bdd081cdd58d8d9595960b21b606482015260840161050c565b600054610100900460ff166119815760405162461bcd60e51b815260040161050c90612097565b8151611994906036906020850190611b7e565b508051610a41906037906020840190611b7e565b600054610100900460ff166119cf5760405162461bcd60e51b815260040161050c90612097565b6001609755565b600054610100900460ff166119fd5760405162461bcd60e51b815260040161050c90612097565b610a7a33611510565b6060611a158484600085611a1d565b949350505050565b606082471015611a7e5760405162461bcd60e51b815260206004820152602660248201527f416464726573733a20696e73756666696369656e742062616c616e636520666f6044820152651c8818d85b1b60d21b606482015260840161050c565b843b611acc5760405162461bcd60e51b815260206004820152601d60248201527f416464726573733a2063616c6c20746f206e6f6e2d636f6e7472616374000000604482015260640161050c565b600080866001600160a01b03168587604051611ae89190611f9f565b60006040518083038185875af1925050503d8060008114611b25576040519150601f19603f3d011682016040523d82523d6000602084013e611b2a565b606091505b5091509150611b3a828286611b45565b979650505050505050565b60608315611b545750816104db565b825115611b645782518084602001fd5b8160405162461bcd60e51b815260040161050c919061202f565b828054611b8a906121c9565b90600052602060002090601f016020900481019282611bac5760008555611bf2565b82601f10611bc557805160ff1916838001178555611bf2565b82800160010185558215611bf2579182015b82811115611bf2578251825591602001919060010190611bd7565b50611bfe929150611c02565b5090565b5b80821115611bfe5760008155600101611c03565b600082601f830112611c2857600080fd5b81516020611c3d611c388361214a565b612119565b80838252828201915082860187848660051b8901011115611c5d57600080fd5b60005b85811015611c7c57815184529284019290840190600101611c60565b5090979650505050505050565b600082601f830112611c9a57600080fd5b813567ffffffffffffffff811115611cb457611cb4612230565b611cc7601f8201601f1916602001612119565b818152846020838601011115611cdc57600080fd5b816020850160208301376000918101602001919091529392505050565b600060208284031215611d0b57600080fd5b81356104db81612246565b60008060408385031215611d2957600080fd5b8235611d3481612246565b91506020830135611d4481612246565b809150509250929050565b600080600060608486031215611d6457600080fd5b8335611d6f81612246565b92506020840135611d7f81612246565b929592945050506040919091013590565b60008060408385031215611da357600080fd5b8235611dae81612246565b946020939093013593505050565b60008060408385031215611dcf57600080fd5b825167ffffffffffffffff80821115611de757600080fd5b818501915085601f830112611dfb57600080fd5b81516020611e0b611c388361214a565b8083825282820191508286018a848660051b8901011115611e2b57600080fd5b600096505b84871015611e57578051611e4381612246565b835260019690960195918301918301611e30565b5091880151919650909350505080821115611e7157600080fd5b50611e7e85828601611c17565b9150509250929050565b600060208284031215611e9a57600080fd5b815180151581146104db57600080fd5b60008060408385031215611ebd57600080fd5b823567ffffffffffffffff80821115611ed557600080fd5b611ee186838701611c89565b93506020850135915080821115611ef757600080fd5b50611e7e85828601611c89565b600060208284031215611f1657600080fd5b5035919050565b600060208284031215611f2f57600080fd5b5051919050565b60008060408385031215611f4957600080fd5b823591506020830135611d4481612246565b600081518084526020808501945080840160005b83811015611f945781516001600160a01b031687529582019590820190600101611f6f565b509495945050505050565b60008251611fb181846020870161219d565b9190910192915050565b604081526000611fce6040830185611f5b565b905060018060a01b03831660208301529392505050565b604081526000611ff86040830185611f5b565b82810360208481019190915284518083528582019282019060005b81811015611c7c57845183529383019391830191600101612013565b602081526000825180602084015261204e81604085016020870161219d565b601f01601f19169190910160400192915050565b6020808252818101527f4f776e61626c653a2063616c6c6572206973206e6f7420746865206f776e6572604082015260600190565b6020808252602b908201527f496e697469616c697a61626c653a20636f6e7472616374206973206e6f74206960408201526a6e697469616c697a696e6760a81b606082015260800190565b6020808252601f908201527f5265656e7472616e637947756172643a207265656e7472616e742063616c6c00604082015260600190565b604051601f8201601f1916810167ffffffffffffffff8111828210171561214257612142612230565b604052919050565b600067ffffffffffffffff82111561216457612164612230565b5060051b60200190565b6000821982111561218157612181612204565b500190565b60008282101561219857612198612204565b500390565b60005b838110156121b85781810151838201526020016121a0565b8381111561119e5750506000910152565b600181811c908216806121dd57607f821691505b602082108114156121fe57634e487b7160e01b600052602260045260246000fd5b50919050565b634e487b7160e01b600052601160045260246000fd5b634e487b7160e01b600052603260045260246000fd5b634e487b7160e01b600052604160045260246000fd5b6001600160a01b0381168114610e3d57600080fdfea26469706673582212207862b38165ec97f0dab0387846aef7bc1bb7c0e88c096c28c263c4df9328c6b564736f6c63430008070033",
  "devdoc": {
    "kind": "dev",
    "methods": {
      "allowance(address,address)": {
        "details": "See {IERC20-allowance}."
      },
      "approve(address,uint256)": {
        "details": "See {IERC20-approve}. NOTE: If `amount` is the maximum `uint256`, the allowance is not updated on `transferFrom`. This is semantically equivalent to an infinite approval. Requirements: - `spender` cannot be the zero address."
      },
      "balanceOf(address)": {
        "details": "See {IERC20-balanceOf}."
      },
      "decimals()": {
        "details": "Returns the number of decimals used to get its user representation. For example, if `decimals` equals `2`, a balance of `505` tokens should be displayed to a user as `5.05` (`505 / 10 ** 2`). Tokens usually opt for a value of 18, imitating the relationship between Ether and Wei. This is the value {ERC20} uses, unless this function is overridden; NOTE: This information is only used for _display_ purposes: it in no way affects any of the arithmetic of the contract, including {IERC20-balanceOf} and {IERC20-transfer}."
      },
      "decreaseAllowance(address,uint256)": {
        "details": "Atomically decreases the allowance granted to `spender` by the caller. This is an alternative to {approve} that can be used as a mitigation for problems described in {IERC20-approve}. Emits an {Approval} event indicating the updated allowance. Requirements: - `spender` cannot be the zero address. - `spender` must have allowance for the caller of at least `subtractedValue`."
      },
      "increaseAllowance(address,uint256)": {
        "details": "Atomically increases the allowance granted to `spender` by the caller. This is an alternative to {approve} that can be used as a mitigation for problems described in {IERC20-approve}. Emits an {Approval} event indicating the updated allowance. Requirements: - `spender` cannot be the zero address."
      },
      "name()": {
        "details": "Returns the name of the token."
      },
      "owner()": {
        "details": "Returns the address of the current owner."
      },
      "renounceOwnership()": {
        "details": "Leaves the contract without owner. It will not be possible to call `onlyOwner` functions anymore. Can only be called by the current owner. NOTE: Renouncing ownership will leave the contract without an owner, thereby removing any functionality that is only available to the owner."
      },
      "symbol()": {
        "details": "Returns the symbol of the token, usually a shorter version of the name."
      },
      "totalSupply()": {
        "details": "See {IERC20-totalSupply}."
      },
      "transfer(address,uint256)": {
        "details": "See {IERC20-transfer}. Requirements: - `to` cannot be the zero address. - the caller must have a balance of at least `amount`."
      },
      "transferFrom(address,address,uint256)": {
        "details": "See {IERC20-transferFrom}. Emits an {Approval} event indicating the updated allowance. This is not required by the EIP. See the note at the beginning of {ERC20}. NOTE: Does not update the allowance if the current allowance is the maximum `uint256`. Requirements: - `from` and `to` cannot be the zero address. - `from` must have a balance of at least `amount`. - the caller must have allowance for ``from``'s tokens of at least `amount`."
      },
      "transferOwnership(address)": {
        "details": "Transfers ownership of the contract to a new account (`newOwner`). Can only be called by the current owner."
      }
    },
    "version": 1
  },
  "userdoc": {
    "kind": "user",
    "methods": {},
    "version": 1
  },
  "storageLayout": {
    "storage": [
      {
        "astId": 130,
        "contract": "contracts/Bread.sol:Bread",
        "label": "_initialized",
        "offset": 0,
        "slot": "0",
        "type": "t_bool"
      },
      {
        "astId": 133,
        "contract": "contracts/Bread.sol:Bread",
        "label": "_initializing",
        "offset": 1,
        "slot": "0",
        "type": "t_bool"
      },
      {
        "astId": 1256,
        "contract": "contracts/Bread.sol:Bread",
        "label": "__gap",
        "offset": 0,
        "slot": "1",
        "type": "t_array(t_uint256)50_storage"
      },
      {
        "astId": 275,
        "contract": "contracts/Bread.sol:Bread",
        "label": "_balances",
        "offset": 0,
        "slot": "51",
        "type": "t_mapping(t_address,t_uint256)"
      },
      {
        "astId": 281,
        "contract": "contracts/Bread.sol:Bread",
        "label": "_allowances",
        "offset": 0,
        "slot": "52",
        "type": "t_mapping(t_address,t_mapping(t_address,t_uint256))"
      },
      {
        "astId": 283,
        "contract": "contracts/Bread.sol:Bread",
        "label": "_totalSupply",
        "offset": 0,
        "slot": "53",
        "type": "t_uint256"
      },
      {
        "astId": 285,
        "contract": "contracts/Bread.sol:Bread",
        "label": "_name",
        "offset": 0,
        "slot": "54",
        "type": "t_string_storage"
      },
      {
        "astId": 287,
        "contract": "contracts/Bread.sol:Bread",
        "label": "_symbol",
        "offset": 0,
        "slot": "55",
        "type": "t_string_storage"
      },
      {
        "astId": 868,
        "contract": "contracts/Bread.sol:Bread",
        "label": "__gap",
        "offset": 0,
        "slot": "56",
        "type": "t_array(t_uint256)45_storage"
      },
      {
        "astId": 10,
        "contract": "contracts/Bread.sol:Bread",
        "label": "_owner",
        "offset": 0,
        "slot": "101",
        "type": "t_address"
      },
      {
        "astId": 122,
        "contract": "contracts/Bread.sol:Bread",
        "label": "__gap",
        "offset": 0,
        "slot": "102",
        "type": "t_array(t_uint256)49_storage"
      },
      {
        "astId": 211,
        "contract": "contracts/Bread.sol:Bread",
        "label": "_status",
        "offset": 0,
        "slot": "151",
        "type": "t_uint256"
      },
      {
        "astId": 255,
        "contract": "contracts/Bread.sol:Bread",
        "label": "__gap",
        "offset": 0,
        "slot": "152",
        "type": "t_array(t_uint256)49_storage"
      }
    ],
    "types": {
      "t_address": {
        "encoding": "inplace",
        "label": "address",
        "numberOfBytes": "20"
      },
      "t_array(t_uint256)45_storage": {
        "base": "t_uint256",
        "encoding": "inplace",
        "label": "uint256[45]",
        "numberOfBytes": "1440"
      },
      "t_array(t_uint256)49_storage": {
        "base": "t_uint256",
        "encoding": "inplace",
        "label": "uint256[49]",
        "numberOfBytes": "1568"
      },
      "t_array(t_uint256)50_storage": {
        "base": "t_uint256",
        "encoding": "inplace",
        "label": "uint256[50]",
        "numberOfBytes": "1600"
      },
      "t_bool": {
        "encoding": "inplace",
        "label": "bool",
        "numberOfBytes": "1"
      },
      "t_mapping(t_address,t_mapping(t_address,t_uint256))": {
        "encoding": "mapping",
        "key": "t_address",
        "label": "mapping(address => mapping(address => uint256))",
        "numberOfBytes": "32",
        "value": "t_mapping(t_address,t_uint256)"
      },
      "t_mapping(t_address,t_uint256)": {
        "encoding": "mapping",
        "key": "t_address",
        "label": "mapping(address => uint256)",
        "numberOfBytes": "32",
        "value": "t_uint256"
      },
      "t_string_storage": {
        "encoding": "bytes",
        "label": "string",
        "numberOfBytes": "32"
      },
      "t_uint256": {
        "encoding": "inplace",
        "label": "uint256",
        "numberOfBytes": "32"
      }
    }
  }
}